:020000040000FA
:100000000002040000000000BA030000F802000033
:100010000A0300000003000012030000BA030000FE
:10002000BA030000BA030000BA030000BA030000DC
:10003000BA0300001A030000BA030000BA0300006C
:10004000BA030000BA030000BA030000BA030000BC
:10005000BA030000680300004A030000BA0300006E
:10006000BA030000BA030000BA030000BA0300009C
:10007000BA030000BA0300009C030000BA030000AA
:10008000BA030000BA030000BA030000BA0300007C
:10009000BA030000BA030000BA030000BA0300006C
:1000A000BA030000BA030000BA030000BA0300005C
:1000B000BA030000BA030000BA030000BA0300004C
:1000C000BA030000BA030000BA030000BA0300003C
:1000D000BA030000BA030000BA030000BA0300002C
:1000E000BA030000BA030000BA030000BA0300001C
:1000F000BA030000BA030000BA030000BA0300000C
:10010000BA030000BA030000BA030000BA030000FB
:10011000BA030000BA030000BA030000BA030000EB
:10012000BA030000BA030000BA030000860300000F
:10013000BA030000BA030000BA030000BA030000CB
:10014000BA030000BA030000BA030000BA030000BB
:10015000BA030000BA030000BA030000BA030000AB
:10016000BA030000BA030000BA030000BA0300009B
:10017000BA030000BA030000BA030000BA0300008B
:10018000BA030000BA030000BA030000BA0300007B
:10019000BA030000BA030000BA030000BA0300006B
:1001A000BA030000BA030000BA030000BA0300005B
:1001B000FFFFFF00FFFFFF00FFFFFF00FFFFFF004B
:1001C000FFFFFF00FFFFFF00FFFFFF00FFFFFF003B
:1001D000FFFFFF00FFFFFF00FFFFFF00FFFFFF002B
:1001E000FFFFFF00FFFFFF00FFFFFF00FFFFFF001B
:1001F000FFFFFF00FFFFFF00FFFFFF00FFFFFF000B
:10020000FFFFFF00FFFFFF00BA030000F80200003D
:100210000A0300000003000012030000BA030000FC
:10022000BA030000BA030000BA030000BA030000DA
:10023000BA0300001A030000BA030000BA0300006A
:10024000BA030000BA030000BA030000BA030000BA
:10025000BA030000680300004A030000BA0300006C
:10026000BA030000BA030000BA030000BA0300009A
:10027000BA030000BA0300009C030000BA030000A8
:10028000BA030000BA030000BA030000BA0300007A
:10029000BA030000BA030000BA030000BA0300006A
:1002A000BA030000BA030000BA030000BA0300005A
:1002B000BA030000BA030000BA030000BA0300004A
:1002C000BA030000BA030000BA030000BA0300003A
:1002D000BA030000BA030000BA030000BA0300002A
:1002E000BA030000BA030000BA030000BA0300001A
:1002F000BA030000BA030000BA030000BA0300000A
:10030000BA030000BA030000BA030000BA030000F9
:10031000BA030000BA030000BA030000BA030000E9
:10032000BA030000BA030000BA030000860300000D
:10033000BA030000BA030000BA030000BA030000C9
:10034000BA030000BA030000BA030000BA030000B9
:10035000BA030000BA030000BA030000BA030000A9
:10036000BA030000BA030000BA030000BA03000099
:10037000BA030000BA030000BA030000BA03000089
:10038000BA030000BA030000BA030000BA03000079
:10039000BA030000BA030000BA030000BA03000069
:1003A000BA030000BA030000BA030000BA03000059
:1003B000FFFFFF00FFFFFF00FFFFFF00FFFFFF0049
:1003C000FFFFFF00FFFFFF00FFFFFF00FFFFFF0039
:1003D000FFFFFF00FFFFFF00FFFFFF00FFFFFF0029
:1003E000FFFFFF00FFFFFF00FFFFFF00FFFFFF0019
:1003F000FFFFFF00FFFFFF00FFFFFF00FFFFFF0009
:10040000CF8720000EFF20000E01880000000000B2
:10041000000020000000E000020032000001200087
:100420002002880014000700160107000000E00009
:1004300003003A0020BF2000010020000200370026
:100440000000200001002000810F70000100320038
:1004500014000700000020000000E000020032004D
:100460000000020000000000420B0200000000003B
:100470000040DA000000FE004440A9008007200090
:100480000000E0000300320000002000A00188000E
:100490004440A800000006008A1F78008B1F7800E7
:1004A0000000060091018800800478000000EB0045
:1004B0001A003700E284440032A0B4009905BA0063
:1004C000E284440032A0B4009906BA00E2844400F9
:1004D00032A0B4000006EB00476FDE00FD07B2005B
:1004E000636CE10003003A00EBFF07000000EB0043
:1004F0000A003700606CE10004003A00005DEB0088
:100500008B05E900FDFF3E00040037006168E10053
:10051000010032000086EB000B00070019C7BA008B
:100520001905BA000E04E00003003A000A00E000DA
:10053000E0FF3A0000000600FE07B2009E018800BE
:100540008A047800F5FF3700395DBA008B05E900B1
:100550000C003200295DBA008B05E900080032006A
:100560000C00E00003003A00E284440032A0B40032
:10057000F5FF370019DDBA008B05E900FAFF3A00F4
:100580008904E800E184440032A0B40000000600C1
:10059000000000000000000000000000000000005B
:1005A000000000000000000000000000000000004B
:1005B000000000000000000000000000000000003B
:1005C000000000000000000000000000000000002B
:1005D000000000000000000000000000000000001B
:1005E000000000000000000000000000000000000B
:1005F0003600F8008020A9000000EB002B05070062
:100600003600F8002D0507008040A90010002000EA
:10061000260507003600F8008060A90020002000B1
:10062000220507003600F8008080A9003000200075
:100630001E0507003600F800809FBE00829FBE00A6
:10064000849FBE00869FBE000000FA00004280002A
:100650000000E000020032000042800000000100C3
:1006600043C8BF000040E80043E8B70010C0B30033
:1006700042E8B7008460A9000080FA004F03BE0082
:100680004F02BE004F01BE004F00BE003600F90011
:10069000004006003600F800809FBE00829FBE002A
:1006A000849FBE00869FBE000000FA00E0418000EB
:1006B000000001000080FA004F03BE004F02BE00A0
:1006C0004F01BE004F00BE003600F900004006009A
:1006D0003600F800809FBE00829FBE00849FBE004F
:1006E000869FBE000000FA00F0418000000001007B
:1006F0000080FA004F03BE004F02BE004F01BE0053
:100700004F00BE003600F90000400600801F780050
:100710000000FA0010118000620060000000E0009C
:10072000010032002222A9008C20A9000080FA00DA
:100730004F007800004006003600F800809FBE00A1
:10074000829FBE00849FBE00869FBE000000FA000C
:10075000A30307008680A9000080FA004F03BE00B3
:100760004F02BE004F01BE004F00BE003600F90030
:10077000004006000040DA000000FE000A00FA0017
:10078000E20F500034003E00D0438000E10F5000E3
:1007900003003200E20F500011003A000C00370055
:1007A000032220000300E00001003A000040DA00CC
:1007B0002002E200020035002822EF0021E2A8001A
:1007C0002342AB000D003A002342A8000B00370083
:1007D000032320000300E00001003A000040DA009B
:1007E0003002E200020035003822EF0031E2A800BA
:1007F0003342AB0001003A003342A8008201780086
:100800000B0037003102FB00E10F500004003A00FA
:100810002322AB00FEFF3A002411880003003700BA
:100820003322AB00FEFF3A00A41188008301E900E7
:100830000300E000F3FF3A00E10F500003003A002C
:100840002302AB00FEFF32000B0037003302AB0087
:10085000FEFF32000800370033002000B3BF9F00C6
:10086000C0BF9F00D1BF9F00E2BF9F006A805700BA
:100870009F0007006FB99700020078000080FA001F
:100880000000060000000500889FBE000004BE00B6
:10089000050037000000FB00890078001200070007
:1008A000E10F400004003200384078000004E0000E
:1008B000F8FF3A000000EB004F04BE000000060005
:1008C000881F7800A1852000EFFF07000004780052
:1008D000A1852000A0002000030007000800780088
:1008E0004F04780000000600889FBE0001047800D5
:1008F000B80090008084EB000118A3003A00320099
:10090000180190000198A30002003A000200E000E4
:1009100035003A000190A00031049800800478006E
:10092000F90FB2000200E00002003A002800900037
:10093000000C7800EA8F540005003A000178A3000B
:1009400003003A0088007800D0002000E6FF07008E
:1009500018009000D8009000810F50000B0032006A
:100960000000E8001004980018007800094878009A
:10097000000CE80011C0B300408720000148780057
:10098000EA8F540018003A0005003700880078000C
:100990000940780017000700800478001200370033
:1009A000380090000088A3000F003200180190006A
:1009B000A80090004800900070FF07009800900089
:1009C000810F500004003200380090000003B30093
:1009D000300498008084EB000000EB0010049800C5
:1009E00028009000000C7800090078004F04BE0039
:1009F000000006000200FA00889FBE00A0FF9F00D2
:100A000001047800380090000068A30033003A0029
:100A1000E200600005003A000003B30030049800D3
:100A2000110498000080EB002E003700D8049000DD
:100A30000900E00006003A0012002000E68057009E
:100A4000480090004DFF070019049800230037006C
:100A5000A80090000100E00008003A007187200023
:100A600021049800010C7800210020005104980016
:100A7000110498000030A000300498001801900084
:100A8000A8009000480090003CFF0700280090005C
:100A90008080EB0011049800AFF8970001487800BF
:100AA000000CE8002FF89700EA4F50000B003A00C6
:100AB000380090000088A300080032001801900060
:100AC000A8009000480090002CFF07000000EB00F9
:100AD00010049800A8009000010C7800AFF897006F
:100AE0000100FB004F04BE000080FA000000060079
:100AF00000C0DA0000000600FF080000000000004F
:100B0000FF00000008000000FF00000000080000D7
:100B1000FF08000000000000FF00000008000000C7
:100B200000000000000000000000000000000000C5
:100B3000FF00000008000000FF00000000080000A7
:100B4000FF08000000000000FF0000000800000097
:100B5000FF0000000008000000000000000000008E
:100B60000000000000000000FF000000000800007E
:100B7000FF08000000000000FF0000000800000067
:100B8000FF00000000080000FF0800000000000057
:100B90000000000000000000000000000000000055
:100BA0000000000000000000FFFF0000FFFF000049
:100BB00064650000746500006374000000000000BC
:100BC000D2060000FE0600003E07000028070000D5
:100BD0002806000084060000780600007207000066
:100BE00034060000F40500000000FA009580A9001A
:100BF0009560A90080002000001188002222EF00EB
:100C0000300320004011880090822000304188008D
:100C1000908220002041880020832000104188001D
:100C200020832000004188002868EF0040632000F6
:100C300007000700406820002D0007009560A8000D
:100C400021E2A8002342A8000080FA00000006006C
:100C50000200FA00000F78001E007800E0418800D2
:100C60000080FA00000006000000FA003141800018
:100C700020418000808F500002003A009580A9003A
:100C8000190037008580A90010003700304180002E
:100C9000904078008180FB00211188000000E8006E
:100CA000304188003141800020832000808F500037
:100CB00002003A00908220003041880031418000DB
:100CC00020418000808F500006003200111180000A
:100CD00000202000008060000000E000EBFF3200F8
:100CE00001003700000000000080FA00000006004C
:100CF0000200FA00000F78001E007800F041880022
:100D00000080FA00000006000000FA001E00370014
:100D10000041800031118000814078000148780056
:100D200001418000A0832000808F50000900320024
:100D3000004180008000E80010418000808F50005A
:100D400004003200004180000000E80000418800FB
:100D50000D00370001418000A0832000808F5000EB
:100D600007003A001141800020832000808F50004E
:100D70000300320020832000004188000200370079
:100D800010C0B30028E8B7001011800061006000B7
:100D90000000E000DEFF3A008560A9000080FA0054
:100DA000000006000200FA000040EB00004F78004F
:100DB000000000001141800000418000808F500041
:100DC000FCFF320010418000104F7800104180007D
:100DD0000000E8001041880011418000B08320002D
:100DE000808F500002003A002083200010418800CC
:100DF0001E4078000080FA00000006000200FA00A1
:100E0000004F7800000000001C0007000004A20052
:100E10000004E000FCFF3A00204180001E487800FA
:100E2000204180000000E80020418800214180002E
:100E300020832000808F500002003A009082200022
:100E4000204188009580A8000080FA00000006007C
:100E50000000FA001141800000418000008068001D
:100E600000F0A7000000EA000000EA004F00DE00EA
:100E7000004078000080FA00000006000400FA003C
:100E80003141800011079800214180001E00900030
:100E9000808F5000060031009E00900020418000AD
:100EA000008050000000E900000F780005003700C6
:100EB0009E009000204180000080500068004000AB
:100EC000000F78001E00780000F0A7000000EA0084
:100ED0000000EA004F00DE00004078000080FA00C9
:100EE000000006000000FA0021418000304180002F
:100EF000808F500009003A0011118000001020007E
:100F00000080600000F0A7000000EA000000EA0096
:100F10004F00DE0000407800010037000040EB0089
:100F20000080FA00000006000400FA000141800081
:100F300011079800104180009E009000808F5000A3
:100F4000060031009E00900010418000008050009B
:100F500069004000000F7800040037009E009000F8
:100F60001041800000805000000F7800F00F20003A
:100F70009E007800808F50000200360000C0EB0019
:100F8000020037001E007800004078000080FA0060
:100F9000000006000000FA00E3FF07000080FA00EE
:100FA000000006000400FA0031418000110798009B
:100FB000214180001E009000808F5000060031000B
:100FC0009E00900020418000008050000000E90059
:100FD000000F7800050037009E009000204180003F
:100FE0000080500068004000000F7800F00F2000E3
:100FF0009E007800808F50000200360000C0EB0099
:10100000020037001E007800004078000080FA00DF
:10101000000006000000FA00E2FF07000080FA006E
:10102000000006000000FA00AEFF07000080FA0092
:10103000000006000800FA00200798003107980019
:10104000B9FF07000080FB00000F78003E00900011
:101050009E0F500002003100BE009000010F78008A
:101060000000EB0010079800090037004DFF070053
:10107000AE009000804878002E0090000000E8004C
:10108000200798001E0090000000E800100798005C
:101090001E0090009E0F5000F4FF39001E007800E3
:1010A0000080FA00000006000800FA0020079800FF
:1010B00031079800BBFF07000080FB00000F78009D
:1010C0003E0090009E0F500002003100BE009000D4
:1010D000010F78000000EB001007980009003700AE
:1010E0002E00900010407800AE0090008100E800D3
:1010F0002107980041FF07001E0090000000E80053
:10110000100798001E0090009E0F5000F4FF390059
:101110001E0078000080FA00000006000400FA00BB
:101120000000EB00000F78007FFF070020479800C9
:101130009CFF0700304798002E4090000080FB0085
:101140000000E00003003200E90F5000030032000D
:10115000040037001E20A000040037001E00A0007D
:10116000020037001E10A000000000003E4090006A
:101170000080FB000000E00003003200E90F500097
:1011800003003200040037001E30A00002003700C8
:101190001E40A000000000001E0078000080FA0041
:1011A000000006000400FA001007980011418000BA
:1011B0001E009000008F4000020037009E00780063
:1011C000698F5000B08320009E007800808F50000F
:1011D000FAFF3E001E007800104078000080FA0000
:1011E000000006000000FA004FFF07000080FB002F
:1011F0000000E9004F00DE00004078000080FA00A7
:10120000000006000000FA0066FF07000080FB00F7
:101210000000E9004F00DE00004078000080FA0086
:10122000000006000000FA00101180000080FA00A3
:10123000000006000000FA0050002000600D880049
:10124000AE21EF00B021EF0000102000900D8800CB
:10125000B621EF00B821EF00BC21EF00BE21EF0066
:1012600000C42900000E8800C221EF00C421EF0055
:1012700000002300400E8800CC21EF00CE21EF00BB
:10128000ADE1A800600D8000004078006F40600074
:101290000080FB00504288000080FA000000060039
:1012A0000000FA000080FA00000006000000FA00CA
:1012B0002104800000042000008060000000E000A5
:1012C00002003200F6FF070084C0A9000080FA0087
:1012D000000006000000FA000080FA00000006008E
:1012E0000000FA003104800000002100008060004E
:1012F0000000E00002003200F6FF07008780A9002E
:101300000080FA00000006000000FA00ADE1A8002D
:101310000080FA00000006000000FA00ADE1A9001C
:101320000080FA00000006000200FA00000F7800BA
:101330009E007800210E88000080FA000000060060
:101340000400FA00000F7800110798009E00780052
:10135000210E88009E009000410E88000080FA0057
:10136000000006000400FA00000F78001107980042
:101370009E007800210E88009E009000410E88009B
:101380000080FA00000006000400FA00000F780058
:10139000110798009E007800210E88009E009000A2
:1013A000410E88000080FA00000006000400FA00E8
:1013B000000F7800110798009E007800210E880029
:1013C0009E009000410E88000080FA000000060098
:1013D0000200FA00000F78009E007800210E8800BD
:1013E0000080FA00000006000000FA0020048000DF
:1013F0004600DE00614060000080FB0000F0A700B6
:101400000000EA000000EA004F00DE000040780023
:101410000080FA00000006000000FA00C00D800005
:101420004700DE00614060000080FB0000F0A70084
:101430000000EA000000EA004F00DE0000407800F3
:101440000080FA00000006000000FA00B8C1A80001
:101450000080FA00000006000000FA00B8A1A90010
:101460000080FA00000006000000FA00C00D8000B5
:101470004300DE00614060000080FB0000F0A70038
:101480000000EA000000EA004F00DE0000407800A3
:101490000080FA00000006000000FA00B861A90010
:1014A0000080FA00000006000400FA00100798000F
:1014B0000000EB00000F7800C462A9000000EB0000
:1014C000000F78000E0037009E00900000082000FA
:1014D000008060000000E00002003200C422A8008A
:1014E00001003700C422A900C442A900C442A800D8
:1014F0001E00900000004000100798001E0FE8003A
:101500001E007800E70F5000EFFF3400C462A8000F
:101510000080FA00000006000400FA00000F7800C6
:10152000110798001E4078000080FB00DEFF0700D6
:101530001E4090000080FB00DBFF07002E40900063
:101540000080FB00D8FF07003E4090000080FB00B9
:10155000D5FF07000080FA00000006000200FA0034
:10156000802E8400912E8400EBFF07000000EB002A
:10157000000F7800080037001E0078004200DD00F0
:10158000E60057008080400021B09700B1B097007E
:10159000E1FF07001E0FE8001E007800E60F500074
:1015A000F5FF3400A02E8400B12E8400DAFF07007E
:1015B0000080FA00000006000200FA00000F780028
:1015C000E12E20001E8040004200DD0080007800F7
:1015D0000000EB005AFF07000080FA000000060040
:1015E0000000FA00805D2800B5FC07000080FA00CA
:1015F000000006000000FA0044C8BF000004E0003C
:1016000006003A0010C0B30044E8B700A000200074
:10161000E9FF0700C402A800040037004468EF0097
:1016200060FF2F00E4FF0700C402A90030428000E1
:101630000000E8003042880030428000E20F500095
:10164000010034004628EF00304280007C00B900E1
:1016500080007800C057280080804000FC87470049
:101660007C8057001B00090031587800C001B10090
:10167000C101B100B9FF0700FC8757000080FA00E4
:10168000000006000000FA001E0107001EFF070010
:10169000A0AF200015010700C2FD0700D7FD07001D
:1016A000FDFF37000000FA000021EF0000F02100EC
:1016B00010088800000328002008880000428000ED
:1016C0000000E00002003A00C0D620001E00070023
:1016D0008460A9009460A8004268EF000080FA00CE
:1016E000000006000200FA00000F78009E0078005B
:1016F000110888004268EF000080FA000000060030
:101700000000FA00100880000080FA0000000600C7
:101710000200FA00000F78009E007800010888009F
:101720004268EF000080FA00000006000000FA00A6
:10173000000880000080FA00000006000000FA00A7
:101740000080FA00000006000200FA00000F780096
:101750009460A9009E007800014288009460A8006F
:101760000080FA00000006000000FA004268EF0066
:101770009460A80005E1A8000080FA0000000600BF
:101780000000FA0005E1A9009460A9000080FA00B9
:10179000000006000200FA00218420009140780039
:1017A000014F78001E4078000004E0000100320084
:1017B0004268EF001E4078000080FA00000006003A
:1017C0000000FA0043C8BF000080FB000080FA0060
:1017D000000006000000FA004368EF000080FA00F5
:1017E000000006004808000002000000020000009F
:1017F000FFFF0000000800002000000000000000C3
:101800004A0800000200000000000000400800003C
:10181000040000000000000020080000200000007C
:101820000000000044080000040000000000000068
:101830004C08000002000000000000004E080000FC
:101840002600000002000000750800000075080076
:10185000090000000002000077080000007708007F
:101860000E02010000000000000000000000000067
:1018700006020200000000004E080000740800008C
:1018800006000000000000007A08000002000000CE
:101890000200000001000000000000000200FA0049
:1018A000000F780003003700007D200001002000B9
:1018B000700007001E00780000F0A7000000EA009A
:1018C0000000EA004F00DE00004078001E0FE90033
:1018D0000004E000F4FF3A000080FA000000060077
:1018E0000200FA00000F7800050037000004200015
:1018F000010020005F00070001FE2F001E8F400046
:101900001E007800FF0F5000F8FF3E000300370074
:101910002000200001002000560007001E00780073
:1019200000F0A7000000EA000000EA004F00DE001F
:10193000004078001E0FE9000004E000F4FF3A00C8
:101940000080FA00000006000000FA007105800027
:1019500080FF2F00008060000000A000700588005C
:1019600021058000F0FF28000080600000C0A0007A
:101970002005880021068000F0F82F00008060001C
:101980000040A000200688005105800080FF2F0045
:10199000008060000000A000500588004105800024
:1019A000F0FF28000080600000C0A0004005880013
:1019B0000080FA00000006000000FA00001023007A
:1019C000203A88004827EF004E27EF007027EF00ED
:1019D0007227EF007427EF007627EF007A27EF00D9
:1019E0007E27EF007200200080072000A109200060
:1019F000337420008049780081497800824978005A
:101A00000001EB0060042000710520002374200019
:101A10008049780081497800824978000080FA0086
:101A2000000006000000FA000001200020168800D7
:101A30000008200060168800000A200000168800B8
:101A4000F0D72F00401688005620EF005820EF00F6
:101A50006E20EF007020EF00C622EF00CE22EF00D4
:101A6000E024EF00803E2B00102788000080FA0061
:101A700000000600F03FB1000180B1000600350013
:101A8000EE03090000000000403FB1000180B100FA
:101A9000FBFF3D001000B000203FB0000200350009
:101AA000008009000000000000000600000F780020
:101AB0009E00780041428800FFFF37000000FA00D6
:101AC00000802000800778008081200000018800CD
:101AD0000080FA00000006000000FA00604280006A
:101AE000000001000080FA00000006000200FA0079
:101AF000000F78001E007800604288000080FA0025
:101B0000000006000000FA00C6FF0700AAFF070059
:101B10008DFF0700C7FD070033FC07000600070024
:101B2000E0FE07000080FA00000006000000FA0056
:101B30000080FA00000006000000FA008680A9007C
:101B40008220A8009680A8000080FA00000006000D
:101B50000000FA0098FF07000080FA00000006006D
:101B6000FFFFFF00FFFFFF00FFFFFF00FFFFFF0081
:101B7000FFFFFF00FFFFFF00FFFFFF00FFFFFF0071
:101B8000FFFFFF00FFFFFF00FFFFFF00FFFFFF0061
:101B9000FFFFFF00FFFFFF00FFFFFF00FFFFFF0051
:0200000401F009
:100000000F0000000000000003000000E7000000F7
:10001000370000005F000000FF000000E300000068
:0200000400FFFB
:10FC0000FFFF0000FFFF0000FFFF0000FFFF0000FC
:10FC1000FFFF0000FFFF0000FFFF0000FFFF0000EC
:10FC2000FFFF0000FFFF0000FFFF0000FFFF0000DC
:10FC3000FFFF0000FFFF0000FFFF0000FFFF0000CC
:00000001FF
